:100000006F70607313000000130000001300000005
:100010001300000013000000130000001300000094
:100020001300000013000000130000001300000084
:08003000130000007300100032
:1000380000000000000000003E7600004E76000040
:10004800000000007C7600000000000000000000B6
:100058007E760000807600000000000000000000AE
:100068008276000000000000847600000000000096
:1000780086760000887600008A7600008C7600007C
:100088008E7600009076000008690000BC690000C8
:10009800706A0000246B0000D86B00009C7600009A
:1000A8009E760000A0760000A2760000A4760000EC
:1000B800A6760000A8760000AA760000AC760000BC
:1000C800AE760000B0760000B27600008C6C0000BE
:1000D800B6760000D66E0000BA760000BC76000046
:1000E800966F00004E7000000E710000C47600008C
:1000F800C6760000C8760000CA760000CC760000FC
:10010800CE76000014620000D86200009C630000F4
:10011800A46D0000D8760000DA760000DC760000D6
:1001280006740000E0760000E2760000E476000045
:10013800E6760000E8760000CE710000EC7600005C
:1001480064640000286500008E7200004673000099
:10015800F6760000F8760000FA760000FC760000DB
:10016800FE760000007700000277000004770000A8
:1001780006770000087700000A770000248B00004B
:100188000E7700001077000038680000EA6500006C
:10019800AE660000786700001A770000C674000099
:1001A8001E77000020770000227700008675000087
:1001B80026770000287700002A7700002C770000B7
:1001C8002E77000030770000327700003477000087
:1001D8000000000000000000000000000000000017
:1001E8000000000000000000000000000000000007
:0801F8000000000000000000FF
:100200003D432A876373C3029377F700BDEFADE5E3
:10021000937606FF3D8ABA960CC34CC30CC74CC7F5
:100220004107E36BD7FE11E28280B306C3408A0622
:100230009702000096966780A6002307B700A306E2
:10024000B7002306B700A305B7002305B700A30432
:10025000B7002304B700A303B7002303B700A3022A
:10026000B7002302B700A301B7002301B700A30022
:10027000B7002300B700828093F5F50F93968500B1
:10028000D58D93960501D58D61B79396270097027A
:10029000000096968682E78086FA9680C1171D8FA9
:1002A0003E96E374C3F8A5B7011122CE00102326B1
:1002B000A4FE37F500E08328450037F500E093F809
:1002C000E8FF2322150183A881820965130505F43F
:1002D00033D5A802AA8601470325C4FEAA87014890
:1002E00037F500E03303F702B308D8029A98338356
:1002F000F60233B6F6029A85B387C8003E860CC96B
:1003000050C9B7F700E09843B7F700E0136707015B
:1003100098C3B7F700E09843B7F700E013671702F8
:1003200098C30100B7F700E0DC4313F717008547D7
:10033000E31AF7FEB7F700E09843B7F700E0799BC0
:1003400098C30100724405618280011106CE22CC5F
:100350000010AA8E2E8E32833685BA853E86C286DE
:100360004687F687A307F4FEF2872307F4FE9A87F1
:10037000A306F4FEAA872306F4FEAE87A305F4FEC7
:10038000B2872305F4FEB687A304F4FEBA872304DC
:10039000F4FE8347F4FE93068004014681453E85C2
:1003A000AD2A8347E4FE93068004014681453E85DD
:1003B000AD228347D4FE93068004014681453E85E5
:1003C000A92A8347C4FE93068004014681453E85E1
:1003D000A9228347B4FE93068004014681453E85E9
:1003E0002D2A8347A4FE93068004014681453E855D
:1003F0002D22834794FE93068004014681453E8565
:10040000292A834784FE93068004014681453E8560
:1004100029228347440093068004014681453E8596
:10042000ED288347040093068004014681453E85FC
:10043000ED208347840093068004014681453E8574
:10044000E9280100F240624405618280011106CE74
:1004500022CC00102326A4FE2324B4FEB2873687C4
:100460002313F4FEBA872312F4FE85450965EF7065
:10047000902BB70705500D472380E700B7070550BD
:100480000547A380E700B7070550035744FE2392B2
:10049000E700B7070550035764FE2393E700B7074B
:1004A00005500327C4FE98C7B7070550032784FEED
:1004B000D8C7B707055011472381E70081451305C9
:1004C0006005EF50304B13056005EF50F04601001A
:1004D000F240624405618280011122CE0010232681
:1004E000A4FE8327C4FE958313F77700B707002087
:1004F0000A0793870704BA979C439C470327C4FEC7
:100500007D8B85463397E600F98FB337F00093F77C
:10051000F70F3E85724405618280797106D622D438
:100520000018232EA4FC232CB4FCB2872328D4FC6F
:10053000A30BF4FC232004FE232204FE232404FE48
:100540008327C4FD958393F7F70F9D8BA307F4FED4
:100550008327C4FD93F7F70FFD8B2307F4FE834732
:10056000F4FE91E785451145EF70502091A80347AF
:10057000F4FE85476317F70085452145EF70101F8E
:1005800081A00347F4FE89476317F700854541457D
:10059000EF70D01D35A00347F4FE8D476318F700B8
:1005A000854513050002EF70701C19A80347F4FE7F
:1005B00091476317F700854513050004EF70101B82
:1005C0008347E4FE0547B317F700C207C183231032
:1005D000F4FE032784FD85476317F702832704FD94
:1005E000C207C183A183C207C18389E78D47232244
:1005F000F4FE11A8832704FDC207C183A183C207AB
:10060000C1832322F4FE832704FDC207C18393F72D
:10061000F70F2324F4FE0347F4FEB70700200A0770
:1006200093870704BA979C43130704FEBA853E8557
:10063000EF706020032784FD85476319F7020347A5
:10064000F4FEB70700200A0793870704BA9794437C
:100650008347E4FE0547B317F700C207C18303478A
:1006600074FD3A86BE853685EF70803F0100B2503A
:10067000225445618280797106D622D40018232E37
:10068000A4FC8327C4FDB337F00093F7F70F3E8730
:1006900013061004C967938547F33A85EF40600A53
:1006A0008327C4FD9C43BD8B0547B317F700939682
:1006B0000701C1828327C4FD9C4313D75700B707A6
:1006C00000200A0793870704BA979C43368798CB84
:1006D0008327C4FDDC43BD8B0547B317F700939612
:1006E0000701C1828327C4FDDC4313D75700B70736
:1006F00000200A0793870704BA979C43368798CB54
:100700008327C4FDDC472326F4FE01008327C4FEB3
:100710001387F7FF2326E4FEF5FB8327C4FDDC43A4
:10072000BD8B0547B317F70093960701C182832756
:10073000C4FDDC4313D75700B70700200A0793878F
:100740000704BA979C433687D8CB8327C4FDDC4780
:100750002324F4FE0100832784FE1387F7FF23245C
:10076000E4FEF5FB8327C4FD9C43BD8B0547B3170F
:10077000F70093960701C1828327C4FD9C4313D7DA
:100780005700B70700200A0793870704BA979C43CE
:100790003687D8CB0100B2502254456182807971EE
:1007A00006D622D40018232EA4FC8327C4FDB33719
:1007B000F00093F7F70F3E8713064005C96793854E
:1007C00047F33A85EF30F0778327C4FDDC43BD8BD8
:1007D0000547B317F70093960701C1828327C4FD2D
:1007E000DC4313D75700B70700200A079387070495
:1007F000BA979C433687D8CB8327C4FD9C43BD8BD7
:100800000547B317F70093960701C1828327C4FDFC
:100810009C4313D75700B70700200A0793870704A4
:10082000BA979C433687D8CB8327C4FDDC47232661
:10083000F4FE01008327C4FE1387F7FF2326E4FE9E
:10084000F5FB8327C4FD9C43BD8B0547B317F70019
:1008500093960701C1828327C4FD9C4313D7570099
:10086000B70700200A0793870704BA979C43368787
:1008700098CB8327C4FDDC472324F4FE01008327A3
:1008800084FE1387F7FF2324E4FEF5FB8327C4FDD2
:10089000DC43BD8B0547B317F70093960701C18270
:1008A0008327C4FDDC4313D75700B70700200A078E
:1008B00093870704BA979C43368798CB8327C4FD58
:1008C000DC472322F4FE0100832744FE1387F7FF51
:1008D0002322E4FEF5FB0100B250225445618280E0
:1008E000797106D622D40018232EA4FCAE87A30D5E
:1008F000F4FC8327C4FDB337F00093F7F70F3E876E
:1009000013069006C967938547F33A85EF30706305
:100910008327C4FD9C43BD8B0547B317F70093960F
:100920000701C1828327C4FD9C4313D75700B70733
:1009300000200A0793870704BA979C433687D8CBD1
:100940008347B4FD95CB8327C4FDDC43BD8B0547AE
:10095000B317F70093960701C1828327C4FDDC43D8
:1009600013D75700B70700200A0793870704BA97E1
:100970009C43368798CB0DA88327C4FDDC43BD8BF1
:100980000547B317F70093960701C1828327C4FD7B
:10099000DC4313D75700B70700200A0793870704E3
:1009A000BA979C433687D8CB8327C4FDDC472326E0
:1009B000F4FE01008327C4FE1387F7FF2326E4FE1D
:1009C000F5FB8327C4FD9C43BD8B0547B317F70098
:1009D00093960701C1828327C4FD9C4313D7570018
:1009E000B70700200A0793870704BA979C43368706
:1009F00098CB8327C4FDDC472324F4FE0100832722
:100A000084FE1387F7FF2324E4FEF5FB8327C4FD50
:100A10009C43BD8B0547B317F70093960701C1822E
:100A20008327C4FD9C4313D75700B70700200A074C
:100A300093870704BA979C433687D8CB8327C4FD96
:100A4000DC43BD8B0547B317F70093960701C182BE
:100A50008327C4FDDC4313D75700B70700200A07DC
:100A600093870704BA979C43368798CB0100B2500E
:100A7000225445618280797106D622D40018232E33
:100A8000A4FC8327C4FDB337F00093F7F70F3E872C
:100A900013065008C967938547F33A85EF30704ACB
:100AA000A30704FE8327C4FD9C43BD8B0547B317F2
:100AB000F70093960701C1828327C4FD9C4313D797
:100AC0005700B70700200A0793870704BA979C438B
:100AD0003687D8CB8327C4FDDC43BD8B0547B317CE
:100AE000F70093960701C1828327C4FDDC4313D727
:100AF0005700B70700200A0793870704BA979C435B
:100B0000368798CB8327C4FDDC472324F4FE0100FD
:100B1000832784FE1387F7FF2324E4FEF5FB832756
:100B2000C4FD9C43BD8B0547B317F700939607019F
:100B3000C1828327C4FD9C4313D75700B707002009
:100B40000A0793870704BA979C43368798CB832775
:100B5000C4FDDC472322F4FE0100832744FE1387F3
:100B6000F7FF2322E4FEF5FB8327C4FDDC433E852B
:100B7000A532AA8781C78547A307F4FE8327C4FD52
:100B80009C43BD8B0547B317F70093960701C182BD
:100B90008327C4FD9C4313D75700B70700200A07DB
:100BA00093870704BA979C433687D8CB8327C4FD25
:100BB000DC472320F4FE0100832704FE1387F7FFA0
:100BC0002320E4FEF5FB8347F4FE3E85B250225419
:100BD00045618280797106D622D40018232EA4FCA8
:100BE000AE87A30DF4FC8327C4FDB337F00093F761
:100BF000F70F3E871306700AC967938547F33A8556
:100C0000EF303034930700F8A307F4FE09AA034736
:100C1000B4FD8347F4FEF98F93F7F70F95CB832745
:100C2000C4FDDC43BD8B0547B317F700939607015E
:100C3000C1828327C4FDDC4313D75700B7070020C8
:100C40000A0793870704BA979C43368798CB0DA869
:100C50008327C4FDDC43BD8B0547B317F70093968C
:100C60000701C1828327C4FDDC4313D75700B707B0
:100C700000200A0793870704BA979C433687D8CB8E
:100C80008347F4FE8583A307F4FE8327C4FDDC4776
:100C90002324F4FE0100832784FE1387F7FF232417
:100CA000E4FEF5FB8327C4FD9C43BD8B0547B317CA
:100CB000F70093960701C1828327C4FD9C4313D795
:100CC0005700B70700200A0793870704BA979C4389
:100CD000368798CB8327C4FDDC472322F4FE01002E
:100CE000832744FE1387F7FF2322E4FEF5FB8327C7
:100CF000C4FD9C43BD8B0547B317F70093960701CE
:100D0000C1828327C4FD9C4313D75700B707002037
:100D10000A0793870704BA979C433687D8CB834743
:100D2000F4FEE39607EE0325C4FDB133AA87FD1751
:100D3000B337F00093F7F70F3E85B2502254456168
:100D40008280397106DE22DC26DA80002326A4FCAC
:100D5000AE87A305F4FC8327C4FCB337F00093F7F8
:100D6000F70F3E871306000CC967938547F33A8552
:100D7000EF30301DA30704FEA1472307F4FE8327AD
:100D8000C4FC9C43BD8B0547B317F700939607013E
:100D9000C1828327C4FC9C4313D75700B7070020A8
:100DA0000A0793870704BA979C433687D8CB8327D3
:100DB000C4FCDC472324F4FE0100832784FE138750
:100DC000F7FF2324E4FEF5FB8327C4FCDC43BD8B43
:100DD0000547B317F70093960701C1828327C4FC28
:100DE000DC4313D75700B70700200A07938707048F
:100DF000BA979C43368798CB7DA88327C4FC9C4335
:100E0000BD8B0547B317F70093960701C18283276F
:100E1000C4FC9C4313D75700B70700200A079387E9
:100E20000704BA979C433687D8CB8327C4FCDC479A
:100E30002322F4FE0100832744FE1387F7FF2322B9
:100E4000E4FEF5FB8327C4FC9C43BD8B0547B31729
:100E5000F70093960701C1828327C4FC9C4313D7F4
:100E60005700B70700200A0793870704BA979C43E7
:100E7000368798CB8327C4FCDC472320F4FE01008F
:100E8000832704FE1387F7FF2320E4FEF5FB834747
:100E9000F4FE860793948701E1848327C4FCDC4336
:100EA0003E85EFF06FE3AA87E207E187C58FE2078F
:100EB000E187A307F4FE8347E4FE1387F7FF2307C8
:100EC000E4FE85FF8327C4FC9C43BD8B0547B31715
:100ED000F70093960701C1828327C4FC9C4313D774
:100EE0005700B70700200A0793870704BA979C4367
:100EF0003687D8CB8327C4FCDC47232EF4FC0100C3
:100F00008327C4FD1387F7FF232EE4FCF5FB8347FB
:100F1000B4FCBE850325C4FCE1328347F4FE3E8564
:100F2000F2506254D25421618280011106CE22CC4B
:100F300000102326A4FEAE873287A305F4FEBA87ED
:100F40002305F4FE8327C4FEB337F00093F7F70FB1
:100F50003E8713062029C967938547F33A85EF300A
:100F6000407E0325C4FEEFF00FF18327C4FE83C744
:100F70008700860793F7F70FBE850325C4FE9939CE
:100F80008347B4FEBE850325C4FEA9318347A4FE72
:100F9000BE850325C4FE3D390325C4FEEFF03F8026
:100FA0000100F240624405618280797106D622D444
:100FB0000018232EA4FCAE87A30DF4FC8327C4FDE8
:100FC000B337F00093F7F70F3E871306402AC9673F
:100FD000938547F33A85EF30C076A30704FE0325D7
:100FE000C4FDEFF04FE98327C4FD83C78700860760
:100FF00093F7F70FBE850325C4FDE93E8347B4FD93
:10100000BE850325C4FDF9360325C4FDEFF02FF995
:101010000325C4FDEFF02FE68327C4FD83C78700B7
:101020008607E207E18793E71700E207E18793F776
:10103000F70FBE850325C4FD713E85450325C4FD1C
:101040000933AA87A307F4FE0325C4FDEFF02FF5AB
:101050008347F4FE3E85B250225445618280797107
:1010600006D622D400182326A4FEAE872322C4FE6F
:101070002320D4FE232EE4FCA305F4FE8327C4FE24
:10108000B337F00093F7F70F3E871306F02BC967CD
:10109000938547F33A85EF30C06A032704FE832720
:1010A000C4FDB307F740B337F00093F7F70F3E875F
:1010B0001306002CC967938547F33A85EF306068C3
:1010C0008327C4FE032704FE98C38327C4FE032797
:1010D000C4FDD8C38327C4FE0347B4FE2384E700BE
:1010E0008327C4FE032744FED8C7C146054685456D
:1010F000032504FEEFF06FC2D14605468545032562
:10110000C4FDEFF08FC10100B250225445618280CE
:10111000011122CE00102326A4FEAE87A305F4FE03
:10112000C9670327C4FE0A0793870773BA979C43CE
:101130003E878347B4FEC207C1832316F700010030
:10114000C9670327C4FE0A0793870773BA979C43AE
:1011500083D78700C207C18393F70708F5F301001F
:10116000724405618280011122CE00102326A4FE64
:10117000AE872315F4FE8357A4FEA183C207C18363
:1011800093F6F70FC9670327C4FE0A07938707730F
:10119000BA979C433E8793970601C1832316F700B5
:1011A0000100C9670327C4FE0A0793870773BA972C
:1011B0009C4383D78700C207C183898BFDD38357A4
:1011C000A4FE93F6F70FC9670327C4FE0A079387A7
:1011D0000773BA979C433E8793970601C1832316F2
:1011E000F7000100C9670327C4FE0A079387077346
:1011F000BA979C4383D78700C207C18393F7070838
:10120000F5F301007244056182805D7186C6A2C457
:1012100080082326A4FC2324B4FC2322C4FC23201E
:10122000D4FC232EE4FA232CF4FA232A04FBC96706
:101230000327C4FC0A0793870773BA979C433E852C
:10124000EF60506485450545EF605052032704FC6C
:1012500093073012631DF7000327C4FB9307501256
:101260006317F70085450545EF60100325A00327A8
:1012700004FC89679387A714631EF7000327C4FB48
:1012800089679387C7146317F700854537152000D2
:10129000EF6090008327C4FC91E785450565EF600A
:1012A000F04C25A00327C4FC85476317F70085454C
:1012B0001165EF60105011A80327C4FC894763161D
:1012C000F70085452165EF60D04E832704FC93F736
:1012D000F70F93068031054685453E85EFF0EFA375
:1012E0008327C4FB93F7F70F9306803105468545A6
:1012F0003E85EFF08FA2032784FBC167F917630DCA
:10130000F700832784FB93F7F70F93068034054695
:1013100081453E85EFF06FA0032744FB9307F00F54
:10132000630DF700832744FB93F7F70F9306003113
:10133000014685453E85EFF04F9E232E04FC232079
:1013400004FE232204FE232404FE231604FE231E8F
:1013500004FC93074010231FF4FC231004FE032712
:1013600084FC85476305F702832784FC81CF03272C
:1013700084FC89476303F702032784FC8D476304D9
:10138000F7020DA8231104FE231204FE25A0231149
:1013900004FE85472312F4FE31A889472311F4FE89
:1013A000231204FE01A889472311F4FE8547231266
:1013B000F4FE0100231704FE03A78182832744FC67
:1013C000B357F7022317F4FE03A78182832744FC57
:1013D000B377F70291E78357E4FEFD172317F4FE76
:1013E0000357E4FE9307F00763F7E70093078003D2
:1013F0002317F4FE49A80357E4FE9307F00363F7AD
:10140000E700930700032317F4FEB5A80357E4FE93
:10141000FD4763F7E700930780022317F4FEA5A0BA
:101420000357E4FEBD4763F7E70093070002231765
:10143000F4FE91A80357E4FE9D4763F6E700E147F9
:101440002317F4FE89A00357E4FE8D4763F6E700F7
:10145000C1472317F4FE05A80357E4FE854763F64A
:10146000E700A1472317F4FE39A88357E4FE81C79C
:10147000231704FE09A813068022C967938547FD38
:101480000145EF30002C8357E4FE2314F4FE93074C
:1014900000202313F4FE231504FE231604FEC9675F
:1014A0000327C4FC0A0793870773BA979C433E87B8
:1014B0009307C4FDBE853A85EF603044C9670327B2
:1014C000C4FC0A0793870773BA979C4385453E85FA
:1014D000EF6030520100B64026446161828079712C
:1014E00022D60018232EA4FC232CB4FC8547A30786
:1014F000F4FE0327C4FD0A079387818EBA979C43A5
:1015000099EB0327C4FD0A079387818EBA970327B7
:1015100084FD98C315A00327C4FD0A079387818E15
:10152000BA979C43032784FD6316F7008547A307FA
:10153000F4FE19A0A30704FE8347F4FE3E8532544F
:1015400045618280011106CE22CC00102326A4FE24
:101550008327C4FE81EB8545856713850780EF608F
:10156000F0206DA80327C4FE85476317F700854563
:101570000545EF6010245DA00327C4FE894763176B
:10158000F70085450945EF60D02249A80327C4FE2E
:101590008D476317F70085451145EF609021BDA881
:1015A0000327C4FE91476317F70085452145EF6087
:1015B0005020ADA00327C4FE95476317F70085456B
:1015C0004145EF60101F99A80327C4FE994763188F
:1015D000F700854513050002EF60B01D81A00327C9
:1015E000C4FE9D476317F70085450965EF60101835
:1015F00035A00327C4FEA1476318F70085453705CA
:101600000800EF60B01619A80327C4FEA5476317AA
:10161000F700854537051000EF6050150100F240D6
:10162000624405618280797106D622D40018232E87
:10163000A4FCB7370140938707C02326F4FE032795
:10164000C4FDA54763ECE7088327C4FD1397270073
:10165000C9679387C773BA979C438287B73701409E
:10166000938707C02326F4FE95A8B70700402326DA
:10167000F4FEADA0B7070040938707402326F4FE91
:10168000B1A8B7170040938707802326F4FEB9A0BE
:10169000B7170040938707C02326F4FE81A0B71731
:1016A00000402326F4FE1DA8B7170040938707408B
:1016B0002326F4FE25A0B737014093870740232651
:1016C000F4FE29A8B7570140938707C02326F4FEEC
:1016D00031A0B75701402326F4FE010085450325BC
:1016E000C4FEEF60904E0100B250225445618280EA
:1016F000797106D622D40018232EA4FCB7370140F6
:10170000938707C02326F4FE0327C4FDA54763EC97
:10171000E7088327C4FD13972700C9679387477697
:10172000BA979C438287B7370140938707C0232627
:10173000F4FE95A8B70700402326F4FEADA0B70736
:101740000040938707402326F4FEB1A8B717004056
:10175000938707802326F4FEB9A0B717004093872C
:1017600007C02326F4FE81A0B71700402326F4FE0D
:101770001DA8B7170040938707402326F4FE25A035
:10178000B7370140938707402326F4FE29A8B757AF
:101790000140938707C02326F4FE31A0B7570140CC
:1017A0002326F4FE010081450325C4FEEF60F041CD
:1017B0000100B250225445618280797122D600180E
:1017C000232EA4FCB7370140938707C02326F4FEDD
:1017D000231504FE0327C4FDA54763ECE708832710
:1017E000C4FD13972700C9679387C778BA979C43AE
:1017F0008287B7370140938707C02326F4FE95A858
:10180000B70700402326F4FEADA0B707004093873A
:1018100007402326F4FEB1A8B7170040938707803E
:101820002326F4FEB9A0B7170040938707C02326EC
:10183000F4FE81A0B71700402326F4FE1DA8B717B9
:101840000040938707402326F4FE25A0B7370140C8
:10185000938707402326F4FE29A8B75701409387B2
:1018600007C02326F4FE31A0B75701402326F4FE1B
:1018700001000327C4FD0A0793870191BA97984393
:101880008947631FF7008327C4FE83D74702139756
:10189000070141838D47B357F7022315F4FE39A0A2
:1018A0008327C4FE83D747022315F4FE8357A4FE83
:1018B0003E85325445618280797122D60018232EEC
:1018C000A4FCB7370140938707C02326F4FE032703
:1018D000C4FDA54763ECE7088327C4FD13972700E1
:1018E000C9679387477BBA979C438287B737014084
:1018F000938707C02326F4FE95A8B7070040232648
:10190000F4FEADA0B7070040938707402326F4FEFE
:10191000B1A8B7170040938707802326F4FEB9A02B
:10192000B7170040938707C02326F4FE81A0B7179E
:1019300000402326F4FE1DA8B717004093870740F8
:101940002326F4FE25A0B7370140938707402326BE
:10195000F4FE29A8B7570140938707C02326F4FE59
:1019600031A0B75701402326F4FE01008327C4FEAF
:10197000239207020100325445618280797106D6B4
:1019800022D40018232EA4FC232CB4FC8545032567
:10199000C4FDB136AA873E871306200FC967938519
:1019A00007073A85EF20F0590327C4FD0A079387FC
:1019B000818EBA97054798C3B7370140938707C010
:1019C0002326F4FE0327C4FDA54763ECE70883271D
:1019D000C4FD13972700C9679387C77DBA979C43B7
:1019E0008287B7370140938707C02326F4FE95A866
:1019F000B70700402326F4FEADA0B7070040938749
:101A000007402326F4FEB1A8B7170040938707804C
:101A10002326F4FEB9A0B7170040938707C02326FA
:101A2000F4FE81A0B71700402326F4FE1DA8B717C7
:101A30000040938707402326F4FE25A0B7370140D6
:101A4000938707402326F4FE29A8B75701409387C0
:101A500007C02326F4FE31A0B75701402326F4FE29
:101A600001000325C4FDF93C0327C4FD0A07938741
:101A70000191BA97032784FD98C3232004FE2322F3
:101A800004FE231404FE032784FD85476315F70233
:101A9000FD572312F4FE03A78182B7470F009387F7
:101AA0000724B357F702C207C183FD17C207C183DA
:101AB0002310F4FE2DA8032784FD89476314F70241
:101AC000FD572312F4FE03A781828567938787BBA6
:101AD000B357F702C207C183FD17C207C1832310A2
:101AE000F4FE31A0FD572312F4FE231004FE23134D
:101AF00004FE231104FE230404FE930704FEBE85A6
:101B00000325C4FEEF60807485450325C4FEEF60A5
:101B1000D00B0100B250225445618280011122CEC7
:101B200000102326A4FEAE87A305F4FE0100CD67B6
:101B30000327C4FE0A0793874780BA979C4383D73D
:101B40000700C207C18393F70708F5D3CD670327C2
:101B5000C4FE0A0793874780BA979C433E87834712
:101B6000B4FEC207C1832312F7000100724405616D
:101B70008280011106CE22CC00102326A4FE23244D
:101B8000B4FE2322C4FE832784FEB337F00093F70C
:101B9000F70F3E8713061004C967938507113A852E
:101BA000EF20303A29A8832784FE138717002324C7
:101BB000E4FE83C70700BE850325C4FE853783275F
:101BC00044FE1387F7FF2322E4FEF1FF0100F240F9
:101BD000624405618280011106CE22CC00102326CA
:101BE000A4FE2324B4FE832784FEB337F00093F7CA
:101BF000F70F3E8713060005C967938507113A85DD
:101C0000EF20303439A8832784FE1387170023245C
:101C1000E4FE8387070093F7F70FBE850325C4FE14
:101C2000F53D832784FE83870700F1FF0100F24022
:101C3000624405618280011106CE22CC0010232669
:101C4000A4FEAE87A305F4FECD670327C4FE0A07F2
:101C500093874780BA979C433E878347B4FE3E866E
:101C6000930550523A85EF60F02E13874184832705
:101C7000C4FEBA9783C7070081453E85EF40804F79
:101C80008347B4FE81CF138741848327C4FEBA976C
:101C900083C707003E85EF40204A19A81387418477
:101CA0008327C4FEBA9783C707003E85EF40A04A4A
:101CB0000100F240624405618280011122CE0010D1
:101CC0002326A4FE2324B4FECD670327C4FE0A07FF
:101CD00093874780BA979C4383D70700C207C18385
:101CE00093F707028DC7CD670327C4FE0A079387C2
:101CF0004780BA979C4383D74700C207C18313F735
:101D0000F70F832784FE2380E700854711A08147D2
:101D10003E85724405618280797106D622D400180E
:101D2000232EA4FC232CB4FC232AC4FC2328D4FC9B
:101D3000032744FD832704FD3D8F8327C4FDB2079D
:101D4000F98F93B7170093F7F70F3E871306A00A92
:101D5000C967938507113A85EF20B01E832744FD9C
:101D600013D78700832704FDA183B307F74093B7F8
:101D7000170093F7F70F3E871306B00AC9679385DC
:101D800007113A85EF20F01B832744FD93F7F70FE7
:101D9000E146014685453E85EFE02FF8832704FDA7
:101DA00093F7F70F93068004014681453E85EFE0E7
:101DB000CFF685450545EF60601B032744FDC167ED
:101DC000FD17F98F0D67130707386387E7200D6745
:101DD000130707386369F70405671307571663810C
:101DE000E716056713075716636FF7001307F0220E
:101DF000638AE70C130760306381E71013076012F2
:101E00006388E70865A6096713078736638BE716BB
:101E10000D67130707126387E71809671307A714ED
:101E20006380E71461A615671307A738638EE7265A
:101E300015671307A7386362F7021167130787381E
:101E40006380E7201567130787126385E722116710
:101E500013074712638CE71A91AE19671307C73847
:101E60006388E72A19671307C7386368F70019679B
:101E7000130767106384E72615AE1D671307E71085
:101E80006382E72C1D671307E7386387E72E39AEB7
:101E9000B7070140D44FB7070140370700FC7D1753
:101EA000758FD8CFB7070140D843B70701406D9B66
:101EB000D8C3B7070140D843B707014013674700AD
:101EC000D8C3EDA4B7070140D44FB7070140370787
:101ED00000FC7D17758FD8CFB7070140D44FB707E7
:101EE000014037070004558FD8CFB7070140D843CA
:101EF000B70701406D9BD8C355ACB7070140D44F1D
:101F0000B7070140370700FC7D17758FD8CFB7079B
:101F10000140D44FB707014037070004558FD8CF91
:101F2000B7070140D843B70701406D9BD8C3B70737
:101F30000140D843B707014013674700D8C3BDA489
:101F4000B7070140D843B70701405D9BD8C3B70727
:101F50000140D843B707014013678700D8C3B9A42D
:101F6000B7070140D843B70701401377F7FCD8C340
:101F7000B7070140D843B707014013670701D8C32B
:101F800035A4B7070140D843B70701401377F7FCE2
:101F9000D8C3B7070140D843B70701401367070309
:101FA000D8C329A4B7070140D44FB707014037076A
:101FB000FDFF7D17758FD8CFB7070140D44F83271A
:101FC00044FDA18313970701B70703007D8FB7076F
:101FD0000140558FD8CFD9AAB7070140D44FB707D2
:101FE00001403707FDFF7D17758FD8CFB707014038
:101FF000D44F832744FDA18313970701B70703003C
:102000007D8FB7070140558FD8CF4DA2B70701404C
:10201000D44FB70701403707F4FF7D17758FD8CF2E
:10202000B7070140D44F832744FDA18313972701AD
:10203000B7070C007D8FB7070140558FD8CFBDA2E1
:10204000B7070140D44FB70701403707F4FF7D17AA
:10205000758FD8CFB7070140D44F832744FDA183A4
:1020600013972701B7070C007D8FB7070140558FE5
:10207000D8CF2DAAB7070140D44FB7070140370783
:10208000D0FF7D17758FD8CFB7070140D44F832776
:1020900044FDA18313974701B70730007D8FB70731
:1020A0000140558FD8CF19A2B7070140D44FB707C9
:1020B00001403707D0FF7D17758FD8CFB707014094
:1020C000D44F832744FDA18313974701B7073000FE
:1020D0007D8FB7070140558FD8CFC9A8B7070140FA
:1020E000D44FB7070140370740FF7D17758FD8CF12
:1020F000B7070140D44F832744FDA183139767019D
:10210000B707C0007D8FB7070140558FD8CF79A89A
:10211000B7070140D44FB7070140370740FF7D178D
:10212000758FD8CFB7070140D44F832744FDA183D3
:1021300013976701B707C0007D8FB7070140558F20
:10214000D8CFADA0B7070140D44FB707014037073C
:1021500000FD7D17758FD8CFB7070140D44F832777
:1021600044FDA18313978701B70700037D8FB7074D
:102170000140558FD8CF1DA8B7070140D44FB707EE
:102180000140370700FD7D17758FD8CFB707014095
:10219000D44F832744FDA18313978701B70700031A
:1021A0007D8FB7070140558FD8CF01008327C4FD2D
:1021B00091E785451165EF50705B69A80327C4FD61
:1021C00085476318F700854537050200EF50705EBC
:1021D00051A00327C4FD89476318F70085453705DB
:1021E0000400EF50105DBDA00327C4FD8D476318A8
:1021F000F700854537050800EF50B05BA1A803271D
:10220000C4FD91476318F700854537051000EF506E
:10221000505A89A00327C4FD95476318F7008545E8
:1022200013050004EF50F05835A00327C4FD99476B
:102230006318F700854513050008EF50905719A85B
:102240000327C4FD9D476317F7008545130500105C
:10225000EF503056232004FE232204FE232404FEE4
:10226000232604FE832784FD2320F4FE231204FE8C
:10227000231304FE231404FE231604FEB147231582
:10228000F4FECD670327C4FD0A0793874780BA97FA
:102290009C433E87930704FEBE853A85EF6040224B
:1022A000CD670327C4FD0A0793874780BA979C43ED
:1022B00085453E85EF6000440100B25022544561DF
:1022C0008280411106C622C4000883A7C185054744
:1022D000638BE7006388070C0947638DE7000D47B0
:1022E000638FE702E9A083A781851387170023ACDA
:1022F000E18475A883A781851387170023ACE18447
:1023000003A78185A54763F1E70AB70700209387F4
:1023100007049C4B1167D8CB23AC018471A003A7A1
:10232000018685476314F7081305F008EFE0CF9A9C
:10233000AA87ADC31945EFF04FC8AA873E8783A788
:1023400081851D8F9307600963F2E7061945EFF059
:10235000AFD683A78185D3F717D05385F720EFC079
:10236000A046C96703A6071B83A6471BEFB0200B37
:10237000AA872E883E85C285EFC0C02DAA871397F5
:1023800007014183B7070020239CE728094723A0C2
:10239000E18629A81945EFF04FC2AA873E8723ACF2
:1023A000E18429A0010021A0010011A00100010089
:1023B000B240224441018280411106C622C4000875
:1023C00083A7C1850947637CF7000D47639AE7003F
:1023D0001945EFF06FCE054723A0E18611A001005B
:1023E0000100B240224441018280011106CE22CC7C
:1023F0000010232204FE83C751866381071409A8B5
:10240000930734FE0546BE8513858193EF207058EF
:10241000930734FEBE851D45EFF03F8AAA87EDF392
:10242000034734FEA947631BF71099472322F4FEA4
:10243000130744FE930784FE85463A86BE851385BE
:102440008193EF30A033930784FE138737000D4646
:10245000C9679385871B3A85EFD0C01DAA879DEB7E
:1024600003A7C18689476304F70C054723A6E186C5
:1024700013858193EF205024AA872322F4FE93072B
:1024800044FE81463E869385419D13858193EF30BE
:10249000E02E71A8930784FE138737000D46C967A5
:1024A0009385C71B3A85EFD0E018AA879DEB03A759
:1024B00081868947630DF706054723A4E1861385C6
:1024C0008193EF20701FAA872322F4FE930744FE16
:1024D00081463E869385419513858193EF30002A8E
:1024E000B9A0930784FE138737000D46C96793850B
:1024F000071C3A85EFD00014AA8795EB03A7018744
:1025000089476306F702054723A8E186138581936F
:10251000EF20901AAA872322F4FE930744FE8146F7
:102520003E86938541A513858193EF302025138541
:102530008193EF20C07305472382E1860100F240BA
:10254000624405618280397106DE22DC8000232628
:10255000A4FC8547A307F4FE231304FE231604FE00
:10256000232404FE232E04FC83D7C1873E879307D0
:1025700000236316F700A5472324F4FE29A0A147F2
:102580002324F4FE01008DA8930750FA2300F4FEE3
:10259000832784FE8A070327C4FCBA978397070022
:1025A00093F7F70FA300F4FE832784FE8A0703271F
:1025B000C4FCBA97839727002313F4FE835764FE65
:1025C000A183C207C18393F7F70F2301F4FE83575A
:1025D00064FE93F7F70FA301F4FE930704FE114680
:1025E000BE851145EFF0EFD80945EFD0FFCB83272B
:1025F00084FEFD172324F4FE032784FE9307E00FD7
:10260000E3F4E7F883A781873E85EF20F00A2A8765
:10261000894763FFE7028D47232EF4FC83A7818758
:102620001306C4FD130704FE8146BA853E85EF30CC
:10263000E014034714FE9307F00F6308F700034705
:1026400024FE9307F00F6315F700A30704FE31A8DB
:102650000545EFD07FC58357C4FE138717002316A7
:10266000E4FE1307700CE37FF7F88347F4FE3E8522
:10267000F250625421618280797106D622D400180A
:10268000232EA4FCA30704FE230704FE231504FE47
:10269000231604FE232004FE83D7C1873E879307B9
:1026A00000236316F700A547A307F4FE29A0A1475E
:1026B000A307F4FE01008347F4FEFD1793F7F70F1D
:1026C000A307F4FE11AA03D7C1879307F02263ED95
:1026D000E7008307F4FE8A070327C4FDBA97039730
:1026E0000700A5476300F70E930750FA2302F4FE94
:1026F000C557A302F4FE8307F4FE8A070327C4FD2F
:10270000BA97839707002315F4FE8357A4FEA1838D
:10271000C207C18393F7F70F2303F4FE8357A4FE88
:1027200093F7F70FA303F4FE930744FE1146BE850B
:102730001145EFF00FC4231604FE83A781873E8561
:10274000EF2080772A87894763F7E7048D472320A6
:10275000F4FE83A78187130604FE130744FE814617
:10276000BA853E85EF308001834754FEA2079396D9
:102770000701C186834764FE1397070141878307DA
:10278000F4FE8A070326C4FDB297558F420741879E
:102790002391E70031A80545EFD01FB18357C4FE50
:1027A000138717002316E4FE1307700CE377F7F87E
:1027B0000357C4FE9307800C63F7E70085472307A0
:1027C000F4FE39A801008307F4FE93F7F70FFD1715
:1027D00093F7F70FA307F4FE8307F4FEE3D507EEA4
:1027E0008347E4FE3E85B250225445618280011148
:1027F00006CE22CC0010232404FE8547A307F4FE56
:10280000231604FE232204FE83A781873E85EF2042
:10281000A06AAA8791C783A781873E85EF202045BC
:102820009305F00F1145EFF06FAF930750FA2304B3
:10283000F4FEBD57A304F4FE230504FEA30504FE25
:10284000930784FE1146BE851145EFF08FB2231623
:1028500004FE83A781873E85EF2000662A8789478B
:1028600063F0E7048D472322F4FE83A781871306D4
:1028700044FE130784FE8146BA853E85EF20107022
:102880000347A4FE85476309F7000347A4FE894771
:102890006304F700854711A08147A307F4FE31A820
:1028A0000545EFD07FA08357C4FE1387170023167A
:1028B000E4FE1307700CE37EF7F88347F4FE3E85D1
:1028C000F240624405618280011106CE22CC0010E4
:1028D000A30704FE9307F4FEBE851145EFF0EFBD9C
:1028E00083A7818785C70347F4FE9307500A6317C0
:1028F000F70083A781873E85EF20603783A7818714
:102900000347F4FEBA853E85EF20A0620100F24045
:10291000624405618280411122C600080547238A6E
:10292000E1860100324441018280011106CE22CCB1
:102930000010231704FE231604FE232204FE93072F
:1029400050FA2304F4FEC557A304F4FE230504FE45
:10295000C957A305F4FE930784FE1146BE851145B1
:10296000EFF02FA183A781873E85EF20E0542A87CF
:10297000894763F0E7048D472322F4FE83A781870C
:10298000130644FE130784FE8146BA853E85EF2078
:10299000F05E834794FEA2071397070141878347A0
:1029A000A4FEC207C187D98FC207C1872316F4FED0
:1029B00031A80545EFD05F8F8357E4FE13871700DA
:1029C0002317E4FE1307700CE37EF7F88357C4FE69
:1029D0003E85F2406244056182805D7186C6A2C474
:1029E00080088547A307F4FEB7070020054723AEFC
:1029F000E7289307C4FD1307C004930620061306B7
:102A0000401F81453E85EFE08FE59307C4FD3E857D
:102A1000EF902001AA87B5EFC96703AEC7371387C8
:102A2000C737032347001387C737832887001387D7
:102A3000C7370328C7001387C737084B1387C73723
:102A40004C4B1387C737104F1387C737544F138723
:102A5000C73718539387C737DC53232AC4FB232C6B
:102A600064FA232E14FB232004FD2322A4FC232438
:102A7000B4FC2326C4FC2328D4FC232AE4FC232C06
:102A8000F4FC930744FB3E85EF80907FAA87A30761
:102A9000F4FE8347F4FE3E85B640264461618280A1
:102AA000597186D6A2D480188547A307F4FE230760
:102AB00004FE232404FEB707002023AE07281305D5
:102AC0000004EFB05066AA872324F4FE832784FE17
:102AD00085E393067020C9671386872AC9679385A3
:102AE000C7340145EF10704C8947A307F4FE35AC9D
:102AF0006545EFB05063AA873E8723ACE18683A784
:102B0000818785E79306E020C9671386872AC9670E
:102B1000938587360145EF105049032584FEEFB0B9
:102B200030618947A307F4FE09A483A78187930630
:102B30000004032684FE81453E85EF30601E9167C8
:102B40009386270691671386C7048967938507587C
:102B50001145EFF06F9C85451145EFF0CF8DF133B6
:102B6000AA873E87239EE18683D7C18781CF4131E3
:102B7000AA8789CB81451145EFF0EF8B8D47A307DD
:102B8000F4FE65A2C96703AEC7371387C7370323AF
:102B900047001387C737832887001387C737032861
:102BA000C7001387C737084B1387C7374C4B1387AA
:102BB000C737104F1387C737544F1387C73718537A
:102BC0009387C737DC532320C4FD232264FC2324CE
:102BD00014FD232604FD2328A4FC232AB4FC232C63
:102BE000C4FC232ED4FC2320E4FE2322F4FEC96778
:102BF00003A3C73D1387C73D832847001387C73DFD
:102C0000032887001387C73D48471387C73D0C4BF0
:102C10001387C73D504B1387C73D144F1387C73DDC
:102C2000584F9387C73D9C53232E64F8232014FBF1
:102C3000232204FB2324A4FA2326B4FA2328C4FA6B
:102C4000232AD4FA232CE4FA232EF4FA930704FC63
:102C50003E85EFF05F8FAA8785C79306B024C967CA
:102C60001386872AC9679385473A0145EF10F033E9
:102C700081451145EFE03FFC8547A307F4FE75A0B1
:102C80009307C4F93E85EFF03F9FAA8785C7930657
:102C90007025C9671386872AC9679385073C014554
:102CA000EF10B03081451145EFE0FFF88547A307ED
:102CB000F4FEA5A8230704FEA1A88347E4FE850728
:102CC0008A07130704FFBA97039707FD8347E4FEBB
:102CD0008A07930604FFB6978397C7FA631FF70224
:102CE0008347E4FE85078A07130704FFBA97039713
:102CF00027FD8347E4FE8A07930604FFB697839770
:102D0000E7FA631CF7008347E4FE85072307F4FE18
:102D10000347E4FEA147E3F2E7FA8347E4FE93B7F3
:102D2000870093F7F70FA307F4FE032584FEEFB0A7
:102D3000304083A781873E85EFB0903F23AC01866A
:102D40008347F4FE3E85B6502654656182807971D2
:102D500006D622D40018A30704FEB7370000138656
:102D6000679181450D45EF10C0058539AA8785C358
:102D7000B737000013866791B73700009385878CBB
:102D80000D45EF100004293BAA87A307F4FE8347F3
:102D9000F4FEB9E791473EC495473EC299473EC00D
:102DA0009308900213088002930760021307B0048F
:102DB0009306900413068004A9452545EFD0EFD86B
:102DC0009306C00385671386072CB70700209385F9
:102DD000C756B70700201385C756EFD02FE731A09D
:102DE000014681450145EF00D07D8347F4FE3E85D5
:102DF000B250225445618280011106CE22CC0010CF
:102E0000AA87A307F4FEB707002093870704DC47CF
:102E100013070008D8CB8347F4FEBE850545EFE0D5
:102E20002FAFB707002093870704DC47130700087C
:102E300098CB0100F240624405618280011106CE08
:102E400022CC0010AA8736872317F4FEAE872316FC
:102E5000F4FEB2872315F4FEBA872314F4FE83C769
:102E60004181C207C1830357E4FEB337F70093F7EC
:102E7000F70F3E871306A008C967938507403A8578
:102E8000EF10300C83C75181C207C1830357C4FEC2
:102E9000B337F70093F7F70F3E871306B008C967FB
:102EA000938507403A85EF10D00983C74181C20757
:102EB000C1830357A4FEB337F70093F7F70F3E879C
:102EC0001306C008C967938507403A85EF1070075D
:102ED00083C75181C207C183035784FEB337F7000C
:102EE00093F7F70F3E871306D008C967938507400D
:102EF0003A85EF10100583A7C18005476376F70078
:102F00000D476369F71061A01305A002F5358145EF
:102F10000545EFE0EF9F8357E4FE93F7F70F89072E
:102F200093F7F70FBE850545EFE08F9E8145054578
:102F3000EFE00F9E8357A4FE93F7F70F890793F7EF
:102F4000F70FBE850545EFE0AF9C1305B0026D3568
:102F500081450545EFE0CF9B8357C4FE93F7F70FFC
:102F6000850793F7F70FBE850545EFE06F9A81451A
:102F70000545EFE0EF99835784FE93F7F70F850738
:102F800093F7F70FBE850545EFE08F9861A0130515
:102F9000A0029D3581450545EFE08F978357E4FEFC
:102FA00093F7F70F850793F7F70FBE850545EFE019
:102FB0002F9681450545EFE0AF958357A4FE93F723
:102FC000F70F850793F7F70FBE850545EFE04F94A0
:102FD0001305B002153581450545EFE06F93835722
:102FE000C4FE93F7F70F890793F7F70FBE850545E2
:102FF000EFE00F9281450545EFE08F91835784FE06
:1030000093F7F70F890793F7F70FBE850545EFE0B4
:103010002F9001001305C002C5330100F240624445
:1030200005618280797106D622D400189307C4FD09
:103030003E85EF10607C8547231EF4FC83C74181E9
:10304000C207C183231FF4FC83C75181C207C18318
:103050002310F4FE83A701810547638AE70099EFF7
:1030600099472301F4FEA147A301F4FE09A8A14753
:103070002301F4FEC147A301F4FE11A00100B737FC
:103080000000938727502324F4FEB737000093876E
:10309000A70A2326F4FE9307C4FD3E85EF10607B4C
:1030A0000100B250225445618280011106CE22CC2B
:1030B000001083C741813E8783C75181B307F70260
:1030C0002326F4FEB707002093870704DC47414717
:1030D000D8CB83C74181C207C183FD17139707016E
:1030E000418383C75181C207C183FD17C207C183D2
:1030F000BE863A8681450145913321A883D7A180B8
:10310000BE850545EFE02F868327C4FEFD172326E5
:10311000F4FE8327C4FEFDF3B7070020938707045E
:10312000DC47414798CB0100F24062440561828050
:10313000011122CE00102326A4FE0327C4FE23A6DD
:10314000E18083A7C18005476376F7000D4763657B
:10315000F70211A8130700F8238AE180130700FA89
:10316000A38AE18011A8130700FA238AE1801307DC
:1031700000F8A38AE18001000100724405618280A9
:10318000011122CE0010AA872E872317F4FEBA87DA
:103190002316F4FE0357E4FE2394E1800357C4FE94
:1031A0002395E1800100724405618280011106CE01
:1031B00022CC0010AA87AE8632872317F4FEB6878A
:1031C0002316F4FEBA872315F4FE83C74181C20794
:1031D000C1830357E4FEB337F70093F7F70F3E8739
:1031E00013064014C967938507403A85EF10605570
:1031F00083C75181C207C1830357C4FEB337F700A9
:1032000093F7F70F3E8713065014C967938507405D
:103210003A85EF100053B707002093870704DC4777
:103220004147D8CB8356C4FE0356E4FE0357C4FE81
:103230008357E4FEBA853E85EFF05FC08357A4FE56
:10324000BE850545EFD03FF2B707002093870704FE
:10325000DC47414798CB0100F2406244056182801F
:10326000797106D622D40018AA87AE863287231F2A
:10327000F4FCB687231EF4FCBA87A30DF4FC83C7C5
:103280004181C207C1830357E4FDB337F70093F7C9
:10329000F70F3E8713069019C967938507403A8553
:1032A000EF10204A83C75181C207C1830357C4FD71
:1032B000B337F70093F7F70F3E871306A019C967D6
:1032C000938507403A85EF10C047A30704FE230704
:1032D00004FEB707002093870704DC474147D8CB9B
:1032E00083A701810547638AE70C639F071EA30735
:1032F00004FE75A88347F4FE1397070141838357A3
:10330000E4FDBA971395070141818347F4FE1397B3
:10331000070141838357E4FDBA971397070141835F
:103320008357C4FDA10793960701C1828357C4FD4B
:103330003A86BE85EFF09FB08307B4FD138707FE82
:103340008346F4FE4D66BA878607BA978607130749
:1033500046E1BA97B69783C70700A306F4FE230792
:1033600004FE25A88347D4FE858B81CB83D781803B
:10337000BE850545EFD03FDF39A083D7A180BE854C
:103380000545EFD05FDE8347D4FE8583A306F4FEB8
:103390008347E4FE85072307F4FE0347E4FE9D47C9
:1033A000E3F2E7FC8347F4FE8507A307F4FE034737
:1033B000F4FE9547E3F0E7F40DAAA30704FE39AA4B
:1033C0008347F4FE1397070141838357E4FDBA97BF
:1033D0001395070141818347F4FE13970701418349
:1033E0008357E4FDBA971397070141838357C4FDC0
:1033F000BD0793960701C1828357C4FD3A86BE85F7
:10340000EFF0DFA38307B4FD938607FE8347F4FE46
:103410004D679206130747823697BA9783C707000E
:103420002306F4FE8307B4FD938607FE8347F4FE6C
:10343000A1074D679206130747823697BA9783C74D
:103440000700A305F4FE230704FE25A88347C4FE56
:10345000858B81CB83D78180BE850545EFD0BFD0DA
:1034600039A083D7A180BE850545EFD0DFCF834744
:10347000C4FE85832306F4FE8347E4FE8507230705
:10348000F4FE0347E4FE9D47E3F2E7FC230704FE56
:1034900025A88347B4FE858B81CB83D78180BE85E9
:1034A0000545EFD05FCC39A083D7A180BE85054507
:1034B000EFD07FCB8347B4FE8583A305F4FE83471B
:1034C000E4FE85072307F4FE0347E4FE9D47E3F28D
:1034D000E7FC8347F4FE8507A307F4FE0347F4FEE9
:1034E0009D47E3FFE7EC11A00100B7070020938799
:1034F0000704DC47414798CB0100B2502254456194
:103500008280797106D622D40018AA872E87232CB0
:10351000C4FC231FF4FCBA87231EF4FC83C741813B
:10352000C207C1830357E4FDB337F70093F7F70FE2
:103530003E871306D01EC967938507403A85EF1072
:10354000402083C75181C207C1830357C4FDB337ED
:10355000F70093F7F70F3E871306E01EC9679385C0
:1035600007403A85EF10E01D231704FE71A083A7E2
:10357000018105476381E704B5EB0357E4FEBA8791
:103580008607BA9786071397070141838357E4FD9F
:10359000BA9793960701C1828357E4FE032784FDFF
:1035A000BA97038707008357C4FD3A86BE853685E0
:1035B000EFF01FCB2DA88357E4FE8E07139707016A
:1035C00041838357E4FDBA9793960701C1828357DD
:1035D000E4FE032784FDBA97038707008357C4FDE1
:1035E0003A86BE853685EFF0BFC711A0010083572C
:1035F000E4FE85072317F4FE8357E4FE032784FDCA
:10360000BA9783870700A5F70100B250225445619D
:103610008280397106DE22DC8000AA872324C4FC64
:1036200036872317F4FCAE872316F4FCBA87A3036E
:10363000F4FC83C74181C207C1830357E4FCB3375D
:10364000F70093F7F70F3E871306B020C9679385FD
:1036500007403A85EF10E00E83C75181C207C1834E
:103660000357C4FCB337F70093F7F70F3E871306F1
:10367000C020C967938507403A85EF10800C8347C7
:1036800074FCB337F00093F7F70F3E871306D02092
:10369000C967938507403A85EF10A00A834774FCF9
:1036A00093B7B70093F7F70F3E871306E020C9677B
:1036B000938507403A85EF10C008832784FC2326B2
:1036C000F4FE85472324F4FE9307C4FD314681456B
:1036D0003E85EFC0FFB2834774FC85073E879307A2
:1036E000C4FD3A86930500023E85EFC07FB10347D3
:1036F00074FCA54763EBE70231A8032784FEBA8771
:103700008A07BA9786072324F4FE834774FCFD17C3
:10371000A303F4FC834774FCEDF30327C4FE832763
:1037200084FEB367F7022326F4FE9307C4FD8325C6
:10373000C4FE3E85EF2050039306C4FD0357C4FC2E
:103740008357E4FC3686BA853E85EFF09FDB0100A7
:10375000F2506254216182805D7186C6A2C48008E5
:103760002A8E2E832324C4FC3685BA853E86C286E3
:103770004687F2872317F4FC9A872316F4FCAA875E
:103780002313F4FCAE872312F4FCB2872311F4FC5C
:10379000B6872310F4FCBA87A30FF4FA83C74181DC
:1037A000C207C1830357E4FCB337F70093F7F70F61
:1037B0003E871306B02BC967938507403A85EF0013
:1037C000507883C75181C207C1830357C4FCB33704
:1037D000F70093F7F70F3E871306C02BC967938551
:1037E00007403A85EF00F075832784FCB337F0007B
:1037F00093F7F70F3E871306D02BC96793850740D1
:103800003A85EF001074232604FE232404FE2313BC
:1038100004FE231204FE232004FE232E04FCB7071B
:10382000002093870704DC474147D8CB0357E4FCCB
:10383000835724FCBA97C207C183FD17139607016B
:1038400041820357C4FC835704FCBA97C207C18363
:10385000FD1793960701C1820357C4FC8357E4FC0C
:10386000BA853E85EFF08FDD232404FE19A20357AD
:1038700044FC832784FE3307F702835704FCB357C5
:10388000F702232EF4FC232604FEC9A8035764FC88
:103890008327C4FE3307F702835724FCB357F7028C
:1038A0002320F4FE035764FC8327C4FD3307F7028B
:1038B000832704FEBA97032784FCBA9783C70700BF
:1038C0002312F4FE8347F4FBB5E3835744FE8D8354
:1038D000C207C183AE072313F4FE835744FE8983D6
:1038E000C207C1839607C207C18793F7077E139764
:1038F00007014187831764FED98FC207C18723134D
:10390000F4FE835744FE8D83C207C183FD8B13975A
:1039100007014183835764FED98F2313F4FE835735
:1039200064FEBE850545EFD01F8425A08347F4FBC8
:10393000C207C183035744FE6377F70081450545FD
:10394000EFD07F8239A0C1679385F7FF0545EFD09F
:103950009F818327C4FE85072326F4FE835724FC1A
:103960000327C4FEE364F7F2832784FE850723243C
:10397000F4FE835704FC032784FEE36AF7EEB707DF
:10398000002093870704DC47414798CB0100B640ED
:10399000264461618280411106C622C400081308D2
:1039A000F00FC167F91705671307F702856693865D
:1039B000D60237A64A041306062081450545EFD0F6
:1039C000DF84C1460146854513057006EFC0FFB48C
:1039D000C1460146854513057002EFC01FB4C146BC
:1039E0000546854513054006EFC03FB3C146054671
:1039F000854513050006EFC05FB283A7C1803E85F1
:103A0000EFF00FF303D7818083D7A180BE853A857D
:103A1000EFF00FF7B707002093870704DC43130785
:103A20000008D8CB2945EFC03F88B707002093870F
:103A30000704DC431307000898CB13058007EFC089
:103A4000BF86B707002093870704DC474147D8CBE0
:103A50004545EFF06FBA13058007EFC0FF841305EB
:103A6000100BEFF06FB985450545EFD06FEA930570
:103A7000C0020545EFD0CFE99305D0020545EFD050
:103A80002FE91305200BEFF02FB785450545EFD043
:103A90002FE89305C0020545EFD08FE79305D002CC
:103AA0000545EFD0EFE61305300BEFF0EFB4854599
:103AB0000545EFD0EFE59305C0020545EFD04FE592
:103AC0009305D0020545EFD0AFE485450545EFD01D
:103AD0002FE49305C0020545EFD08FE39305D00294
:103AE0000545EFD0EFE21305400BEFF0EFB09D4539
:103AF0000545EFD0EFE11305000CEFF0EFAF9305B4
:103B0000200A0545EFD0CFE089450545EFD04FE0CD
:103B1000930540080545EFD0AFDF1305100CEFF01B
:103B2000AFAD9305500C0545EFD08FDE1305200C8B
:103B3000EFF08FACA9450545EFD08FDD81450545F8
:103B4000EFD00FDD1305300CEFF00FAB9305A0089D
:103B50000545EFD0EFDB9305A0020545EFD04FDB25
:103B60001305400CEFF04FA99305A0080545EFD0D1
:103B70002FDA9305E00E0545EFD08FD91305500CD1
:103B8000EFF08FA7B9450545EFD08FD81305600337
:103B9000EFF08FA683A7C18005476380E70281CB42
:103BA00009476381E7020D476384E70205A893058F
:103BB000000C0545EFD0CFD515A081450545EFD0C8
:103BC0002FD529A89305000A0545EFD06FD439A059
:103BD000930500060545EFD0AFD301001305000E95
:103BE000EFF08FA1BD450545EFD08FD2E9450545E2
:103BF000EFD00FD2BD450545EFD08FD1E14505454A
:103C0000EFD00FD19305F0020545EFD06FD09305AB
:103C100080020545EFD0CFCF930500020545EFD0D8
:103C20002FCF930520020545EFD08FCEFD450545EA
:103C3000EFD00FCEED450545EFD08FCD9305300287
:103C40000545EFD0EFCC930570030545EFD04FCC81
:103C500081450545EFD0CFCB9D450545EFD04FCBF6
:103C600089450545EFD0CFCAC1450545EFD04FCABC
:103C70001305100EEFF04F98BD450545EFD04FC925
:103C8000ED450545EFD0CFC8BD450545EFD04FC840
:103C9000DD450545EFD0CFC7930530030545EFD08F
:103CA0002FC79305C0020545EFD08FC6930590023C
:103CB0000545EFD0EFC59305E0020545EFD04FC5B0
:103CC000930500030545EFD0AFC4930500030545F8
:103CD000EFD00FC4930590030545EFD06FC3930554
:103CE000F0030545EFD0CFC281450545EFD04FC267
:103CF0009D450545EFD0CFC18D450545EFD04FC15E
:103D0000C1450545EFD0CFC01305A002EFF0CF8E1F
:103D100081450545EFD0CFBF89450545EFD04FBF61
:103D200081450545EFD0CFBE930520080545EFD06E
:103D30002FBE1305B002EFF02F8C81450545EFD063
:103D40002FBD8D450545EFD0AFBC81450545EFD072
:103D50002FBC930530080545EFD08FBB1305000F2E
:103D6000EFF08F8985450545EFD08FBA1305600FB9
:103D7000EFF08F8881450545EFD08FB91305A0037B
:103D8000EFF08F8795450545EFD08FB8130590026A
:103D9000EFF08F86B707002093870704DC47414781
:103DA00098CBEFF08FB0EFF0EFA70100B2402244C4
:103DB00041018280411122C60008010032444101C4
:103DC0008280011122CE00102326A4FE2324B4FEFB
:103DD0002322C4FE0327C4FE23A0E188832744FED8
:103DE00081C7832744FE29A0B7470000938747DB9C
:103DF00023AEF180832784FE81C7832784FE29A018
:103E0000B7470000938747DB23ACF1800100724481
:103E100005618280411122C60008B717024098430D
:103E2000B71702401367170098C3B7170240D4436F
:103E3000B71702403707FFF8758FD8C3B71702408E
:103E40009443B71702403707F7FE7D17758F98C365
:103E5000B71702409443B71702403707FCFF7D179E
:103E6000758F98C3B7170240D443B717024037077E
:103E700081FF7D17758FD8C3B717024037079F00A2
:103E800098C70100324441018280797106D622D45C
:103E90000018232EA4FCEFF0FFF7232604FE2324B2
:103EA00004FEB71702409443B71702404167558F8D
:103EB00098C3B71702409843B7070200F98F23242D
:103EC000F4FE8327C4FE85072326F4FE832784FEA1
:103ED00091E70327C4FE8567E31DF7FCB71702408F
:103EE0009843B7070200F98F89C785472324F4FE5A
:103EF00019A0232404FE032784FE85476312F716C6
:103F000037170240B71702405843D8C3371702404B
:103F1000B71702405843D8C337170240B7170240BB
:103F20005843D8C3B7170240D443B71702403707E6
:103F3000C1FF7D17758FD8C30327C4FDB747950808
:103F400093870740631BF700B7170240D443B717A6
:103F500002404167558FD8C355A80327C4FDB71742
:103F60002707938707E0631CF700B7170240D44385
:103F7000B717024037073900558FD8C341A8032728
:103F8000C4FDB7E7B80593870780631CF700B71730
:103F90000240D443B717024037072900558FD8C3D2
:103FA000B5A00327C4FDB7A74A0493870720631C65
:103FB000F700B7170240D443B717024037071D0078
:103FC000558FD8C3A1A00327C4FDB777DC02938720
:103FD00007C0631CF700B7170240D443B71702406D
:103FE00037071100558FD8C315A00327C4FDB73775
:103FF0006E0193870760631BF700B7170240D44335
:10400000B717024037070500558FD8C3B7170240CE
:104010009443B717024037070001558F98C301003A
:10402000B71702409843B7070002F98FF5DBB717BF
:104030000240D843B7170240719BD8C3B71702405C
:10404000D843B717024013672700D8C30100B7173A
:104050000240DC4313F7C700A147E31AF7FE11A0A3
:1040600001A0B250225445618280011106CE22CCBB
:1040700000102326A4FE0327C4FE23A4E182EFF050
:104080007FD90325C4FEEFF05FE0EF202017010089
:10409000F240624405618280411122C6000801009D
:1040A0000100324441018280011106CE22CC001071
:1040B000232604FE232404FE232604FE2DA023240D
:1040C00004FE01A8EFF05FFD832784FE850723240B
:1040D000F4FE032784FEC167E366F7FE8327C4FE70
:1040E00085072326F4FE0327C4FE9307F00FE3F8A9
:1040F000E7FC0100F240624405618280411122C662
:1041000000080100324441018280011106CE22CC18
:1041100000102326A4FE8325C4FE0945EFD0BFABC3
:104120000100F240624405618280130101D9232617
:1041300011262324812623229126801C232EA4D8F5
:10414000232CB4D8232AC4D82328D4D8231504FE7A
:10415000231404FE231304FE231204FE231104FE81
:10416000032584D9EFB0E04BAA87C207C187231388
:10417000F4FEB727002083D7878899C7B727002088
:10418000938787889C4B829783C7518893F7F70F53
:104190006385074EB727002083D787886389074642
:1041A000B727002093878788D447835724FE139727
:1041B0000701418793170701C1838507C207C183A0
:1041C000C207C1872311F4FE93170701C183032699
:1041D000C4D9BE8501458296832784D92326F4FE5F
:1041E000032584D9EFB0E043AA87C207C187231310
:1041F000F4FEB72700209387878883D727003E8760
:10420000B72700209387878883C76700B347F702E3
:10421000C207C1872312F4FE01008327C4FE13875F
:1042200017002326E4FE83870700E5FB231404FE22
:10423000A1A88327C4FEFD172326F4FE8327C4FE0E
:10424000038707009307F002630AF7008327C4FE81
:10425000038707009307C005631BF700835784FE9D
:10426000C207C1838507C207C1832314F4FE8357A5
:1042700064FEC207C187C207C183FD17C207C1839D
:10428000C207C1872313F4FE835784FE13970701E7
:104290004183854763E8E700835764FEC207C1870F
:1042A000E3D907F8835764FEC207C18763C20702D8
:1042B0008327C4FE85072326F4FE130704EE032696
:1042C000C4FEC9679385074B3A85EFB020311DA81E
:1042D000835784FEC207C18381EF130704EE0326D0
:1042E000C4FEC9679385C74B3A85EFB0202F19A844
:1042F000130704EE0326C4FEC9679385074B3A856E
:10430000EFB0C02D231504FE05A2231404FE59A00E
:10431000930704EE3E85EFB0C0302A87835784FEB2
:10432000C207C183BE868357A4FEC207C1833E86EF
:10433000835744FEC207C187B307F602B697636787
:10434000F706835784FEC207C1833E878357A4FEC6
:10435000C207C183BE86835744FEC207C187B387A5
:10436000F602BA97035784FE42074183BA861307C1
:1043700004FFBA97038707EF930704FFB6972388D4
:10438000E7EA835784FEC207C1838507C207C1835A
:104390002314F4FE835784FEC207C1833E878357EC
:1043A00044FEC207C187E345F7F611A00100835719
:1043B00084FEC207C183130704FFBA97238807EA64
:1043C000B72700209387878803A8C700B727002056
:1043D0009387878883C777001397070141838357A3
:1043E00024FE93960701C18693970601C183850732
:1043F000C207C183C207C1872311F4FE9397060148
:10440000C183B307F702C207C183130704EA3A86E0
:10441000BE85014502988357A4FEC207C183850764
:10442000C207C1832315F4FE8357A4FEC207C183CC
:10443000BE84930704EE3E85EFB0A01E2A87835703
:1044400044FEC207C187B357F7028507E3EFF4EADA
:10445000130704EE032644D9C9679385C74C3A85F0
:10446000EFB0C017B72700209387878803A8C7003D
:10447000B72700209387878883C7770013970701A2
:104480004183835724FE93960701C18693970601C3
:10449000C1838507C207C183C207C1872311F4FE08
:1044A00093970601C183B307F702C207C1831307BD
:1044B00004EE3A86BE8501450298832704D9638EAF
:1044C000071A231504FE05A2231404FE59A0032590
:1044D00004D9EFB000152A87835784FEC207C18331
:1044E000BE868357A4FEC207C1833E86835744FE1F
:1044F000C207C187B307F602B6976368F70683570A
:1045000084FEC207C1833E878357A4FEC207C183CE
:10451000BE86835744FEC207C187B387F602BA97A7
:104520003E87832704D9BA97035784FE4207418305
:10453000BA8603870700930704FFB6972388E7EA44
:10454000835784FEC207C1838507C207C183231432
:10455000F4FE835784FEC207C1833E87835744FE1F
:10456000C207C187E345F7F611A00100835784FE17
:10457000C207C183130704FFBA97238807EAB72746
:1045800000209387878803A8C700B7270020938758
:10459000878883C77700139707014183835724FED9
:1045A00093960701C18693970601C1838507C207C9
:1045B000C183C207C1872311F4FE93970601C1830B
:1045C000B307F702C207C183130704EA3A86BE8520
:1045D000014502988357A4FEC207C1838507C2071D
:1045E000C1832315F4FE8357A4FEC207C183BE8492
:1045F000032504D9EFB0E0022A87835744FEC2079F
:10460000C187B357F7028507E3E0F4ECBDA0930739
:1046100004DA1306001081453E85EFB07FBEB72750
:104620000020938787889C470325C4D982978327D6
:1046300004D999CF130504DA032704D9832644D972
:10464000032684D9C9679385874DEFA0307929A8BF
:10465000130704DA832644D9032684D9C9679385CE
:10466000474F3A85EFA09077B72700209387878838
:104670009847930704DA3E85029701008320C126FC
:1046800003248126832441261301012782804111BE
:1046900006C622C4000883C7518893F7F70F99CF45
:1046A000938541880945EFD04FE1054693854188C0
:1046B000B72700201385C786EF00B02D0100B24058
:1046C000224441018280797106D622D40018232E1B
:1046D000A4FC232CB4FC232AC4FC232604FEA9A09A
:1046E0000100CD67938747809C47930500043E8572
:1046F000EF406015AA87F5D7CD67938747809C4721
:10470000BE86832784FD13871700232CE4FC838750
:104710000700C207C183BE853685EF40E00F8327BF
:10472000C4FE85072326F4FE0327C4FE832744FD29
:10473000E348F7FA832744FD3E85B2502254456191
:104740008280011106CE22CC0010AA872324B4FE59
:104750002322C4FEA307F4FE8347F4FEB1E383C71C
:10476000C18293F7F70F8DCF83C7618891C301A0F2
:1047700083C76188850713F7F70F2383E188EF105C
:104780003025EFF0BF978146032644FE832584FE43
:10479000C9671385C750EFF05F99EFF0FF90E5B759
:1047A0000100F240624405618280011106CE22CCF4
:1047B0000010AA872324B4FE2322C4FE2320D4FEA3
:1047C000A307F4FE8347F4FE95E383C7518893F76C
:1047D000F70F91CF832684FE032604FE832544FE33
:1047E000C9671385C751EFF05F9411A00100010064
:1047F000F240624405618280011122CE001023261E
:10480000A4FE8327C4FE239007008327C4FE7D57A0
:104810002391E7008327C4FE7D572392E700832777
:10482000C4FE7D572383E7008327C4FE7D57A383FF
:10483000E7008327C4FE23A407008327C4FE23A622
:1048400007008327C4FE23A8070001007244056106
:104850008280011122CE00102326A4FE8327C4FEED
:1048600003D70700B72700202394E7888327C4FED7
:1048700003D72700B7270020938787882391E70075
:104880008327C4FE03D74700B72700209387878874
:104890002392E7008327C4FE03C76700B7270020E1
:1048A000938787882383E7008327C4FE03C77700A5
:1048B000B727002093878788A383E7008327C4FE58
:1048C0009847B72700209387878898C78327C4FE17
:1048D000D847B727002093878788D8C78327C4FE87
:1048E000984BB72700209387878898CB0547A382EA
:1048F000E1880100724405618280797106D622D474
:1049000000189307C4FD3E85EFF01FEFB747000086
:104910009387A7102322F4FE9307C4FD3E85EFF092
:104920005FF389679386B70289671386A702F167E9
:10493000938507200945EFD02FBE93060004B727C3
:1049400000201386C7828145B72700201385C786BC
:10495000EF10003D85450945EFD0EFAD0100B250A5
:10496000225445618280011122CE00102326A4FE2C
:104970002324B4FE8327C4FE03C7970083C6A70081
:10498000A206558F83C6B700C206558F83C7C700DE
:10499000E207D98F3E87832784FE3E978327C4FE94
:1049A0009375F70F83C69700818A3686AE86D18EBF
:1049B000A384D7009356870093F5F60F83C6A7000C
:1049C000818A3686AE86D18E2385D700935607011D
:1049D00093F5F60F83C6B700818A3686AE86D18EF0
:1049E000A385D7001356870103C7C700018BBA867A
:1049F0003287558F2386E70055A08327C4FE03C75F
:104A0000970083C6A700A206558F83C6B700C206CB
:104A1000558F83C7C700E207D98F3E868327C4FE20
:104A200003C7570183C66701A206558F83C6770166
:104A3000C206558F83C78701E207D98F3307F64037
:104A40008327C4FE9375F70F83C69700818A368645
:104A5000AE86D18EA384D7009356870093F5F60FC8
:104A600083C6A700818A3686AE86D18E2385D7007D
:104A70009356070193F5F60F83C6B700818A3686F1
:104A8000AE86D18EA385D7001356870103C7C70012
:104A9000018BBA863287558F2386E7008327C4FEB1
:104AA00003C7570183C66701A206558F83C67701E6
:104AB000C206558F83C78701E207D98F3E868327B9
:104AC000C4FE03C7970083C6A700A206558F83C6FE
:104AD000B700C206558F83C7C700E207D98FE3FE30
:104AE000C7F00100724405618280011122CE0010DE
:104AF0002326A4FE2324B4FE8327C4FE03C7D700C5
:104B000083C6E700A206558F83C6F700C206558FFD
:104B100083C70701E207D98F3E87832784FE3E972C
:104B20008327C4FE9375F70F83C6D700818A368624
:104B3000AE86D18EA386D7009356870093F5F60FE5
:104B400083C6E700818A3686AE86D18E2387D7005A
:104B50009356070193F5F60F83C6F700818A3686D0
:104B6000AE86D18EA387D7001356870103C70701EE
:104B7000018BBA863287558F2388E70055A083279B
:104B8000C4FE03C7D70083C6E700A206558F83C6BD
:104B9000F700C206558F83C70701E207D98F3E860B
:104BA0008327C4FE03C7570183C66701A206558F3A
:104BB00083C67701C206558F83C78701E207D98F65
:104BC0003307F6408327C4FE9375F70F83C6D700DB
:104BD000818A3686AE86D18EA386D700935687000B
:104BE00093F5F60F83C6E700818A3686AE86D18EAE
:104BF0002387D7009356070193F5F60F83C6F70076
:104C0000818A3686AE86D18EA387D7001356870158
:104C100003C70701018BBA863287558F2388E700C7
:104C20008327C4FE03C7570183C66701A206558FB9
:104C300083C67701C206558F83C78701E207D98FE4
:104C40003E868327C4FE03C7D70083C6E700A206BB
:104C5000558F83C6F700C206558F83C70701E20749
:104C6000D98FE3FEC7F0010072440561828079713B
:104C700006D622D40018232EA4FC8327C4FDB33704
:104C8000F00093F7F70F3E8713065005C967938529
:104C900087523A85EFF0FFAA232604FE8327C4FD3E
:104CA00083C7070093E7170013F7F70F8327C4FDA7
:104CB0002380E7008327C4FD03C79700018BA384EB
:104CC000E70003C7A700018B2385E70003C7B700F0
:104CD000018BA385E70003C7C700018B2386E7008C
:104CE0008327C4FD03C7D700018BA386E70003C752
:104CF000E700018B2387E70003C7F700018BA38739
:104D0000E70003C70701018B2388E7008327C4FD61
:104D100003C7570183C66701A206558F83C6770173
:104D2000C206558F83C78701E207D98F3E87832745
:104D3000C4FD9375F70F83C61701818A3686AE8648
:104D4000D18EA388D7009356870093F5F60F83C6BC
:104D50002701818A3686AE86D18E2389D700935665
:104D6000070193F5F60F83C63701818A3686AE8632
:104D7000D18EA389D7001356870103C74701018B42
:104D8000BA863287558F238AE7008327C4FD03C77D
:104D9000170083C62700A206558F83C63700C206B8
:104DA000558F83C74700E207D98F0547638DE70416
:104DB00089C709476380E70AEDA08327C4FD03C7BD
:104DC000570083C66700A206558F83C67700C206C8
:104DD000558F83C78700E207D98F3E858327C4FD9F
:104DE00003C7570183C66701A206558F83C67701A3
:104DF000C206558F83C78701E207D98F3E8681455A
:104E0000EFB00FC079A88327C4FD03C7570083C63E
:104E10006700A206558F83C67700C206558F83C7E9
:104E20008700E207D98F3E858327C4FD03C757015A
:104E300083C66701A206558F83C67701C206558FC8
:104E400083C78701E207D98F86073E868145EFB089
:104E50002FBB81A88327C4FD03C7570083C6670003
:104E6000A206558F83C67700C206558F83C7870079
:104E7000E207D98F3E858327C4FD03C7570183C648
:104E80006701A206558F83C67701C206558F83C777
:104E90008701E207D98F8A073E868145EFB04FB67A
:104EA00001008327C4FD238007008327C4FE3E85BD
:104EB000B250225445618280011106CE22CC0010EE
:104EC0002326A4FE8327C4FEB337F00093F7F70F21
:104ED0003E8713066007C967938587523A85EFF0CE
:104EE0005F868327C4FE03C7570183C66701A206F6
:104EF000558F83C67701C206558F83C78701E207A6
:104F0000D98F3E868327C4FE03C7170183C62701B6
:104F1000A206558F83C63701C206558F83C7470146
:104F2000E207D98FB307F6403E85F240624405613F
:104F30008280797106D622D40018232EA4FC232C5B
:104F4000B4FC8327C4FDB337F00093F7F70F3E8717
:104F500013064008C967938587523A85EFF06FFEC4
:104F6000232604FE8327C4FD83C70700958B93F790
:104F7000F70F89C791472326F4FE29A48327C4FD90
:104F800083C7070093E7470013F7F70F8327C4FD94
:104F90002380E7008327C4FD03C7170183C62701C9
:104FA000A206558F83C63701C206558F83C74701B6
:104FB000E207D98F638A071A8327C4FD03C7170046
:104FC00083C62700A206558F83C63700C206558FB9
:104FD00083C74700E207D98F05476380E70689C783
:104FE00009476386E70ADDA88327C4FD03C7570086
:104FF00083C66700A206558F83C67700C206558F09
:1050000083C78700E207D98F3E868327C4FD03C785
:10501000970083C6A700A206558F83C6B700C206B5
:10502000558F83C7C700E207D98FB297032784FD46
:105030001377F70F2380E70055A08327C4FD03C72C
:10504000570083C66700A206558F83C67700C20645
:10505000558F83C78700E207D98F3E868327C4FD1B
:1050600003C7970083C6A700A206558F83C6B70063
:10507000C206558F83C7C700E207D98F8607B2974C
:10508000032784FD420741832390E70081A88327FB
:10509000C4FD03C7570083C66700A206558F83C6A9
:1050A0007700C206558F83C78700E207D98F3E86F7
:1050B0008327C4FD03C7970083C6A700A206558FA8
:1050C00083C6B700C206558F83C7C700E207D98FD2
:1050D0008A07B297032784FD98C3010085450325FD
:1050E000C4FDEFF05F888327C4FD03C7170183C6A3
:1050F0002701A206558F83C63701C206558F83C785
:105100004701E207D98F1387F7FF8327C4FD937503
:10511000F70F83C61701818A3686AE86D18EA388A3
:10512000D7009356870093F5F60F83C62701818A2F
:105130003686AE86D18E2389D7009356070193F524
:10514000F60F83C63701818A3686AE86D18EA38953
:10515000D7001356870103C74701018BBA863287F0
:10516000558F238AE70021A095472326F4FE832745
:10517000C4FD83C70700ED9B13F7F70F8327C4FD1A
:105180002380E7008327C4FE3E85B2502254456148
:105190008280797106D622D40018232EA4FC232CF9
:1051A000B4FC232AC4FC8327C4FDB337F00093F773
:1051B000F70F3E871306000BC967938587523A8520
:1051C000EFF02FD8232604FE232404FE832784FD3A
:1051D00089E78D472326F4FE59AB8327C4FD83C797
:1051E0000700958B93F7F70F89C791472326F4FEA5
:1051F000BDAB8327C4FD83C7070093E7470013F7C0
:10520000F70F8327C4FD2380E7008327C4FD03C76E
:10521000170183C62701A206558F83C63701C20630
:10522000558F83C74701E207D98F3E87832744FD07
:105230006361F7528327C4FD03C7570183C6670123
:10524000A206558F83C67701C206558F83C7870193
:10525000E207D98F3E868327C4FD03C7970083C624
:10526000A700A206558F83C6B700C206558F83C715
:10527000C700E207D98FB307F6402324F4FE0327C3
:1052800044FD832784FE63F3E72E8327C4FD03C711
:10529000170083C62700A206558F83C63700C206B3
:1052A000558F83C74700E207D98F05476385E70E0F
:1052B00089C709476386E71C11A98327C4FD03C773
:1052C000570083C66700A206558F83C67700C206C3
:1052D000558F83C78700E207D98F3E868327C4FD99
:1052E00003C7970083C6A700A206558F83C6B700E1
:1052F000C206558F83C7C700E207D98FB29703262E
:1053000084FE832584FD3E85EF902063832584FE03
:105310000325C4FDEFF02FE58327C4FD03C7570025
:1053200083C66700A206558F83C67700C206558FD5
:1053300083C78700E207D98F3E868327C4FD03C752
:10534000970083C6A700A206558F83C6B700C20682
:10535000558F83C7C700E207D98FB306F60003272E
:1053600084FD832784FEB305F700032744FD8327CC
:1053700084FEB307F7403E863685EF90005C032736
:1053800044FD832784FEB307F740BE850325C4FD93
:10539000EFF06FDD25AE8327C4FD03C7570083C63A
:1053A0006700A206558F83C67700C206558F83C754
:1053B0008700E207D98F3E868327C4FD03C7970085
:1053C00083C6A700A206558F83C6B700C206558FB5
:1053D00083C7C700E207D98F86073307F600832704
:1053E00084FE86073E86832584FD3A85EF90E0544F
:1053F000832584FE0325C4FDEFF0EFD68327C4FD8B
:1054000003C7570083C66700A206558F83C677007F
:10541000C206558F83C78700E207D98F3E86832750
:10542000C4FD03C7970083C6A700A206558F83C695
:10543000B700C206558F83C7C700E207D98F86071A
:10544000B306F600832784FE8607032784FDB30591
:10545000F700032744FD832784FEB307F740860740
:105460003E863685EF90604D032744FD832784FEFA
:10547000B307F740BE850325C4FDEFF0CFCEB9A436
:105480008327C4FD03C7570083C66700A206558F54
:1054900083C67700C206558F83C78700E207D98F7E
:1054A0003E868327C4FD03C7970083C6A700A206D4
:1054B000558F83C6B700C206558F83C7C700E20762
:1054C000D98F8A073307F600832784FE8A073E8632
:1054D000832584FD3A85EF904046832584FE03258D
:1054E000C4FDEFF04FC88327C4FD03C7570083C630
:1054F0006700A206558F83C67700C206558F83C703
:105500008700E207D98F3E868327C4FD03C7970033
:1055100083C6A700A206558F83C6B700C206558F63
:1055200083C7C700E207D98F8A07B306F60083272F
:1055300084FE8A07032784FDB305F700032744FD93
:10554000832784FEB307F7408A073E863685EF90AF
:10555000C03E032744FD832784FEB307F740BE8582
:105560000325C4FDEFF02FC001008DA28327C4FDE9
:1055700003C7170083C62700A206558F83C63700CE
:10558000C206558F83C74700E207D98F0547638757
:10559000E70689C709476387E70C0DAA8327C4FD7F
:1055A00003C7570083C66700A206558F83C67700DE
:1055B000C206558F83C78700E207D98F3E868327AF
:1055C000C4FD03C7970083C6A700A206558F83C6F4
:1055D000B700C206558F83C7C700E207D98FB297BD
:1055E000032644FD832584FD3E85EF900035832509
:1055F00044FD0325C4FDEFF00FB7C9A88327C4FD00
:1056000003C7570083C66700A206558F83C677007D
:10561000C206558F83C78700E207D98F3E8683274E
:10562000C4FD03C7970083C6A700A206558F83C693
:10563000B700C206558F83C7C700E207D98F860718
:105640003307F600832744FD86073E86832584FDC5
:105650003A85EF90802E832544FD0325C4FDEFF0AD
:105660008FB0ADA08327C4FD03C7570083C6670072
:10567000A206558F83C67700C206558F83C7870061
:10568000E207D98F3E868327C4FD03C7970083C6F0
:10569000A700A206558F83C6B700C206558F83C7E1
:1056A000C700E207D98F8A073307F600832744FD36
:1056B0008A073E86832584FD3A85EF90002883255E
:1056C00044FD0325C4FDEFF00FAA01008327C4FDAC
:1056D00003C7170183C62701A206558F83C637016A
:1056E000C206558F83C74701E207D98F3E878327BC
:1056F00044FD1D8F8327C4FD9375F70F83C61701E3
:10570000818A3686AE86D18EA388D70093568700CD
:1057100093F5F60F83C62701818A3686AE86D18E31
:105720002389D7009356070193F5F60F83C63701F7
:10573000818A3686AE86D18EA389D700135687011B
:1057400003C74701018BBA863287558F238AE7004A
:1057500021A095472326F4FE8327C4FD83C70700B5
:10576000ED9B13F7F70F8327C4FD2380E700832702
:10577000C4FE3E85B250225445618280797106D6BE
:1057800022D40018232EA4FC232CB4FC232AC4FC0E
:105790002328D4FC8327C4FDB337F00093F7F70F19
:1057A0003E8713061016C967938587523A85EFE046
:1057B0005FF9832744FDB337F00093F7F70F3E8777
:1057C00013062016C967938587523A85EFE07FF765
:1057D000232604FE232404FE232204FE832784FDC3
:1057E00089E78D472326F4FEA9A18327C4FD83C73B
:1057F00007008D8B93F7F70F91CB832744FD032789
:1058000044FE98C399472326F4FE21A30325C4FD33
:10581000EFF08FEA2322A4FE832744FD9C43032755
:1058200044FE6379F702832744FD032744FE98C3AF
:105830009D472326F4FE832744FE89EF8327C4FD7A
:1058400083C70700DD9B13F7F70F8327C4FD238071
:10585000E700C1A18327C4FD83C7070093E7870042
:1058600013F7F70F8327C4FD2380E7008327C4FDC8
:1058700003C7570183C66701A206558F83C6770108
:10588000C206558F83C78701E207D98F3E868327DB
:10589000C4FD03C7D70083C6E700A206558F83C6A1
:1058A000F700C206558F83C70701E207D98FB307F8
:1058B000F6402324F4FE832744FD9C43032784FE03
:1058C0006366F7148327C4FD03C7170083C6270048
:1058D000A206558F83C63700C206558F83C747007F
:1058E000E207D98F05476384E70689C70947638FB5
:1058F000E70A2DA68327C4FD03C7570083C66700A8
:10590000A206558F83C67700C206558F83C78700CE
:10591000E207D98F3E868327C4FD03C7D70083C61D
:10592000E700A206558F83C6F700C206558F83C7CE
:105930000701E207D98F3307F600832744FD9C4314
:105940003E86BA85032584FDEF80307FC1AC832776
:10595000C4FD03C7570083C66700A206558F83C6E0
:105960007700C206558F83C78700E207D98F3E862E
:105970008327C4FD03C7D70083C6E700A206558F5F
:1059800083C6F700C206558F83C70701E207D98F88
:1059900086073307F600832744FD9C4386073E862F
:1059A000BA85032584FDEF8050798DAC8327C4FD33
:1059B00003C7570083C66700A206558F83C67700CA
:1059C000C206558F83C78700E207D98F3E8683279B
:1059D000C4FD03C7D70083C6E700A206558F83C660
:1059E000F700C206558F83C70701E207D98F8A07E0
:1059F0003307F600832744FD9C438A073E86BA8519
:105A0000032584FDEF807073010009AC8327C4FD7A
:105A100003C7170083C62700A206558F83C6370029
:105A2000C206558F83C74700E207D98F05476383B6
:105A3000E70A89C709476381E714CDA28327C4FD1C
:105A400003C7570083C66700A206558F83C6770039
:105A5000C206558F83C78700E207D98F3E8683270A
:105A6000C4FD03C7D70083C6E700A206558F83C6CF
:105A7000F700C206558F83C70701E207D98FB29797
:105A8000032684FEBE85032584FDEF80106B03276B
:105A900084FD832784FE3305F7008327C4FD03C7F5
:105AA000570083C66700A206558F83C67700C206DB
:105AB000558F83C78700E207D98FBE86832744FDB1
:105AC0009843832784FEB307F7403E86B685EF8070
:105AD000D066A9A28327C4FD03C7570083C6670009
